{
  "transactions": [
    {
      "hash": "0x6bc11f5b40b8c1bece243d6a219e92c49e33b6a71d30095b7a133f1693a647fe",
      "transactionType": "CREATE",
      "contractName": "SamuraiTiers",
      "contractAddress": "0x2bb8fc0196becd84bac853e32c9c252343699186",
      "function": null,
      "arguments": [
        "0x519eD34150300dC0D04d50a5Ff401177A92b4406",
        "0xfb691697BDAf1857C748C004cC7dab3d234E062E",
        "0xf96Bc096dd1E52dcE4d595B6C4B8c5d2200db1E5"
      ],
      "transaction": {
        "from": "0xcde00be56479f95b5e33de136ad820ffae996009",
        "gas": "0x187c28",
        "value": "0x0",
        "input": "0x6080346101d8576000906115173881900390601f8201601f191683016001600160401b038111848210176101c457918084926060946040528339810103126101c05761004a816101dd565b90610063604061005c602084016101dd565b92016101dd565b9133156101ac578354336001600160a01b031982168117865560405195916001600160a01b03167f8be0079c531659141344cd1fd0a4f28419497f9722a3daafe3b4186f6b6457e08380a3506001600160a01b0316928315158061019a575b80610188575b1561015457600280546001600160a01b031990811686179091556003805482166001600160a01b03808616918217909255600480549093169186169182179092556040805187815260208101939093528201527f4a63c11355051bcaacfe9bccd58e7a363904399e83b8784c05f598dcb09cf75a90606090a16001805560405161132590816101f28239f35b62461bcd60e51b815260206004820152600f60248201526e496e76616c6964206164647265737360881b6044820152606490fd5b506001600160a01b03831615156100c8565b506001600160a01b03821615156100c2565b631e4fbdf760e01b84526004849052602484fd5b5080fd5b634e487b7160e01b85526041600452602485fd5b600080fd5b51906001600160a01b03821682036101d85756fe6080604052600436101561001257600080fd5b60003560e01c8063039af9eb146109ab578063289c3ee4146107a557806347ccca021461077c57806361bc221a1461075e578063715018a6146107055780637497211b146105c25780638da5cb5b146105995780638e80eacf146103385780639538d25f146102fc578063b45aae52146102c8578063c5ec78741461029f578063ecb8fc911461016d578063f2fde38b146100e45763f83d08ba146100b657600080fd5b346100df5760003660031901126100df576003546040516001600160a01b039091168152602090f35b600080fd5b346100df5760203660031901126100df576100fd610c2f565b6101056112a4565b6001600160a01b0316801561015757600080546001600160a01b03198116831782556001600160a01b0316907f8be0079c531659141344cd1fd0a4f28419497f9722a3daafe3b4186f6b6457e09080a3005b631e4fbdf760e01b600052600060045260246000fd5b346100df5760603660031901126100df57610186610c2f565b6024356001600160a01b038116908190036100df576044356001600160a01b03811692908390036100df576101b96112a4565b6101c16112cd565b6001600160a01b031680151580610296575b8061028d575b15610256577f4a63c11355051bcaacfe9bccd58e7a363904399e83b8784c05f598dcb09cf75a92606092826001600160601b0360a01b6002541617600255806001600160601b0360a01b6003541617600355816001600160601b0360a01b600454161760045560405192835260208301526040820152a160018055005b60405162461bcd60e51b815260206004820152600f60248201526e496e76616c6964206164647265737360881b6044820152606490fd5b508215156101d9565b508115156101d3565b346100df5760003660031901126100df576004546040516001600160a01b039091168152602090f35b346100df5760203660031901126100df576102f86102ec6102e7610c2f565b610e7a565b60405191829182610be2565b0390f35b346100df5760203660031901126100df5760043567ffffffffffffffff81116100df576102ec6103336102f8923690600401610b8b565b610c9d565b346100df5760c03660031901126100df5760043567ffffffffffffffff81116100df57610369903690600401610b8b565b6103716112a4565b6103796112cd565b60055460018101809111610583576040519161039483610a61565b8252602082019160243583526040810160443581526060820160643581526080830190608435825260a084019260a43584528560005260066020526040600020945196875167ffffffffffffffff811161056d576103f28754610a27565b601f8111610530575b506020601f821160011461049e579161045982600597959360209b9a9997957f64a55044d1f2eddebe1b90e8e2853e8e96931cefadbfa0b2ceb34bee360619419d600092610493575b50508160011b916000199060031b1c19161790565b87555b51600187015551600286015551600385015551600484015551910155610483600554610c5c565b600555604051908152a160018055005b015190508d80610444565b601f1982169988600052816000209a60005b8181106105185750927f64a55044d1f2eddebe1b90e8e2853e8e96931cefadbfa0b2ceb34bee360619419b60209b9a999795936001938360059b9997106104ff575b505050811b01875561045c565b015160001960f88460031b161c191690558c80806104f2565b838301518d556001909c019b602093840193016104b0565b61055d90886000526020600020601f840160051c81019160208510610563575b601f0160051c0190610c45565b896103fb565b9091508190610550565b634e487b7160e01b600052604160045260246000fd5b634e487b7160e01b600052601160045260246000fd5b346100df5760003660031901126100df576000546040516001600160a01b039091168152602090f35b346100df5760203660031901126100df576004356105de6112a4565b6105e66112cd565b80600052600660205260406000209060056040519261060484610a61565b61060d81610a9f565b845260018101546020850152600281015460408501526003810154606085015260048101546080850152015460a0830152600052600660205260006005604082206106588154610a27565b806106c3575b508260018201558260028201558260038201558260048201550155600554801561058357600019016005556040517f468a84801967f1312f6634863f8daa487918eb9e8a903875b82caa7202b0deb49181906106ba9082610be2565b0390a160018055005b601f81116001146106d957508281555b8461065e565b818452602084206106f491601f01841c810190600101610c45565b8083528260208120818355556106d3565b346100df5760003660031901126100df5761071e6112a4565b600080546001600160a01b0319811682556001600160a01b03167f8be0079c531659141344cd1fd0a4f28419497f9722a3daafe3b4186f6b6457e08280a3005b346100df5760003660031901126100df576020600554604051908152f35b346100df5760003660031901126100df576002546040516001600160a01b039091168152602090f35b346100df5760e03660031901126100df5760043560243567ffffffffffffffff81116100df576107d9903690600401610b8b565b906107e26112a4565b6107ea6112cd565b604051916107f783610a61565b825260208201916044358352604081016064358152606082016084358152608083019060a435825260a084019260c43584528560005260066020526040600020945196875167ffffffffffffffff811161056d576108558754610a27565b601f8111610979575b506020601f82116001146108e757916108bb82600597959360209b9a9997957f208509800c5cb9707f116ef96a1d456499ab9fa3c8edc1cdf381fe5216d5b1739d6000926104935750508160011b916000199060031b1c19161790565b87555b51600187015551600286015551600385015551600484015551910155604051908152a160018055005b601f1982169988600052816000209a60005b8181106109615750927f208509800c5cb9707f116ef96a1d456499ab9fa3c8edc1cdf381fe5216d5b1739b60209b9a999795936001938360059b999710610948575b505050811b0187556108be565b015160001960f88460031b161c191690558c808061093b565b838301518d556001909c019b602093840193016108f9565b6109a590886000526020600020601f840160051c8101916020851061056357601f0160051c0190610c45565b8961085e565b346100df5760203660031901126100df576004356000526006602052610a0960406000206109d881610a9f565b906001810154906002810154906003810154600560048301549201549260405196879660c0885260c0880190610b66565b94602087015260408601526060850152608084015260a08301520390f35b90600182811c92168015610a57575b6020831014610a4157565b634e487b7160e01b600052602260045260246000fd5b91607f1691610a36565b60c0810190811067ffffffffffffffff82111761056d57604052565b90601f8019910116810190811067ffffffffffffffff82111761056d57604052565b9060405191826000825492610ab384610a27565b8084529360018116908115610b215750600114610ada575b50610ad892500383610a7d565b565b90506000929192526020600020906000915b818310610b05575050906020610ad89282010138610acb565b6020919350806001915483858901015201910190918492610aec565b905060209250610ad894915060ff191682840152151560051b82010138610acb565b60005b838110610b565750506000910152565b8181015183820152602001610b46565b90602091610b7f81518092818552858086019101610b43565b601f01601f1916010190565b81601f820112156100df5780359067ffffffffffffffff821161056d5760405192610bc0601f8401601f191660200185610a7d565b828452602083830101116100df57816000926020809301838601378301015290565b6020815260c060a0610bff845183602086015260e0850190610b66565b93602081015160408501526040810151606085015260608101516080850152608081015182850152015191015290565b600435906001600160a01b03821682036100df57565b818110610c50575050565b60008155600101610c45565b60001981146105835760010190565b60405190610c7882610a61565b600060a083606081528260208201528260408201528260608201528260808201520152565b610ca5610c6b565b50604051610cd460208281610cc38183019687815193849201610b43565b81010301601f198101835282610a7d565b5190206005549060015b82811115610d2f57505050604051610cf581610a61565b604051610d03602082610a7d565b60008152815260006020820152600060408201526000606082015260006080820152600060a082015290565b80600052600660205260406000206040516020810191816000825492610d5484610a27565b9360018116908115610e325750600114610df0575b50610d7d925003601f198101835282610a7d565b5190208214610d9457610d8f90610c5c565b610cde565b91505060005260066020526040600020600560405191610db383610a61565b610dbc81610a9f565b835260018101546020840152600281015460408401526003810154606084015260048101546080840152015460a082015290565b9150506000528160206000206000905b838210610e185750506020610d7d9282010138610d69565b602091925080600191548385880101520191018391610e00565b60ff1916875250610d7d938015150283016020019150389050610d69565b8051821015610e645760209160051b010190565b634e487b7160e01b600052603260045260246000fd5b90602490610e86610c6b565b506002546040516370a0823160e01b81526001600160a01b039485166004820181905294909360209285928391165afa91821561112b5760009261126f575b50600354604051638af37ef160e01b8152600481018590529190600090839060249082906001600160a01b03165afa91821561112b57600092611137575b50600093845b8351861015610faa576000806020610f218988610e50565b5101516040610f308a89610e50565b51015160405190602082019262d81ed360e71b84526024830152604482015260448152610f5e606482610a7d565b51906a636f6e736f6c652e6c6f675afa506020610f7b8786610e50565b5101516040610f8a8887610e50565b510151810390811161058357810180911161058357600190950194610f09565b939194509150602060018060a01b0360045416926024604051809581936370a0823160e01b835260048301525afa91821561112b576000926110f3575b50600111156110c5576005549160015b8381111561100f5750505050604051610cf581610a61565b80600052600660205260406000206040519061102a82610a61565b61103381610a9f565b825260018101546020830152600281015480604084015260038201549182606085015260056004820154918260808701520154918260a086015286101592836110ba575b50821561109c575b5050611094575061108f90610c5c565b610ff7565b935050505090565b8610159150816110af575b50388061107f565b9050841115386110a7565b861115925038611077565b50506110f06040516110d8604082610a7d565b600681526529b437b3bab760d11b6020820152610c9d565b90565b90916020823d602011611123575b8161110e60209383610a7d565b81010312611120575051906001610fe7565b80fd5b3d9150611101565b6040513d6000823e3d90fd5b90913d8082843e6111488184610a7d565b82019160208184031261126b5780519067ffffffffffffffff8211611253570182601f8201121561126b5780519167ffffffffffffffff8311611257576040519361119960208560051b0186610a7d565b838552602060e081870195028401019281841161125357602001935b8385106111c85750505050509038610f03565b60e0858303126112535760405160e0810181811067ffffffffffffffff82111761123f579160209160e09360405287518152828801518382015260408801516040820152606088015160608201526080880151608082015260a088015160a082015260c088015160c08201528152019401936111b5565b634e487b7160e01b85526041600452602485fd5b8280fd5b634e487b7160e01b81526041600452602490fd5b5080fd5b9091506020813d60201161129c575b8161128b60209383610a7d565b810103126100df5751906024610ec5565b3d915061127e565b6000546001600160a01b031633036112b857565b63118cdaa760e01b6000523360045260246000fd5b6002600154146112de576002600155565b633ee5aeb560e01b60005260046000fdfea264697066735822122060fd13c6b64e689f505b99b1b2e3e50f8dc73b2565e2ea9fbee584c0f8b4d1c964736f6c634300081a0033000000000000000000000000519ed34150300dc0d04d50a5ff401177a92b4406000000000000000000000000fb691697bdaf1857c748c004cc7dab3d234e062e000000000000000000000000f96bc096dd1e52dce4d595b6c4b8c5d2200db1e5",
        "nonce": "0x24",
        "chainId": "0x2105"
      },
      "additionalContracts": [],
      "isFixedGasLimit": false
    },
    {
      "hash": "0xa0a5b14d01c37a9e23ea895cab4b18c52a401a5f61362cbee8ec8ddb61e5afc4",
      "transactionType": "CALL",
      "contractName": "SamuraiTiers",
      "contractAddress": "0x2bb8fc0196becd84bac853e32c9c252343699186",
      "function": "addTier(string,uint256,uint256,uint256,uint256,uint256)",
      "arguments": [
        "\"Ronin\"",
        "0",
        "15000000000000000000000",
        "29999000000000000000000",
        "20000000000000000000",
        "44000000000000000000"
      ],
      "transaction": {
        "from": "0xcde00be56479f95b5e33de136ad820ffae996009",
        "to": "0x2bb8fc0196becd84bac853e32c9c252343699186",
        "gas": "0x3771b",
        "value": "0x0",
        "input": "0x8e80eacf00000000000000000000000000000000000000000000000000000000000000c0000000000000000000000000000000000000000000000000000000000000000000000000000000000000000000000000000000000000032d26d12e980b60000000000000000000000000000000000000000000000000065a3fc1a67c6f5c0000000000000000000000000000000000000000000000000001158e460913d00000000000000000000000000000000000000000000000000002629f66e0c53000000000000000000000000000000000000000000000000000000000000000000005526f6e696e000000000000000000000000000000000000000000000000000000",
        "nonce": "0x25",
        "chainId": "0x2105"
      },
      "additionalContracts": [],
      "isFixedGasLimit": false
    },
    {
      "hash": "0x12c8a7e4aae5de23490c28303176f787189f580cb8964e4bb85a142038726976",
      "transactionType": "CALL",
      "contractName": "SamuraiTiers",
      "contractAddress": "0x2bb8fc0196becd84bac853e32c9c252343699186",
      "function": "addTier(string,uint256,uint256,uint256,uint256,uint256)",
      "arguments": [
        "\"Gokenin\"",
        "0",
        "30000000000000000000000",
        "59999000000000000000000",
        "45000000000000000000",
        "90000000000000000000"
      ],
      "transaction": {
        "from": "0xcde00be56479f95b5e33de136ad820ffae996009",
        "to": "0x2bb8fc0196becd84bac853e32c9c252343699186",
        "gas": "0x31ae8",
        "value": "0x0",
        "input": "0x8e80eacf00000000000000000000000000000000000000000000000000000000000000c0000000000000000000000000000000000000000000000000000000000000000000000000000000000000000000000000000000000000065a4da25d3016c00000000000000000000000000000000000000000000000000cb48d6403ac861c000000000000000000000000000000000000000000000000000270801d946c940000000000000000000000000000000000000000000000000004e1003b28d92800000000000000000000000000000000000000000000000000000000000000000007476f6b656e696e00000000000000000000000000000000000000000000000000",
        "nonce": "0x26",
        "chainId": "0x2105"
      },
      "additionalContracts": [],
      "isFixedGasLimit": false
    },
    {
      "hash": "0x48c15c60dc9bd9ccdf53f1a3b2783859351411d5a84f49aa651a36f2d96b6296",
      "transactionType": "CALL",
      "contractName": "SamuraiTiers",
      "contractAddress": "0x2bb8fc0196becd84bac853e32c9c252343699186",
      "function": "addTier(string,uint256,uint256,uint256,uint256,uint256)",
      "arguments": [
        "\"Goshi\"",
        "0",
        "60000000000000000000000",
        "99999000000000000000000",
        "91000000000000000000",
        "150000000000000000000"
      ],
      "transaction": {
        "from": "0xcde00be56479f95b5e33de136ad820ffae996009",
        "to": "0x2bb8fc0196becd84bac853e32c9c252343699186",
        "gas": "0x31ad7",
        "value": "0x0",
        "input": "0x8e80eacf00000000000000000000000000000000000000000000000000000000000000c00000000000000000000000000000000000000000000000000000000000000000000000000000000000000000000000000000000000000cb49b44ba602d80000000000000000000000000000000000000000000000000152cf4e72a974f1c0000000000000000000000000000000000000000000000000004eee0f1dc808c000000000000000000000000000000000000000000000000000821ab0d44149800000000000000000000000000000000000000000000000000000000000000000005476f736869000000000000000000000000000000000000000000000000000000",
        "nonce": "0x27",
        "chainId": "0x2105"
      },
      "additionalContracts": [],
      "isFixedGasLimit": false
    },
    {
      "hash": "0xad554a98638f02443a4aa304faa982a1613549b03e0fffee9a26162dfe00f373",
      "transactionType": "CALL",
      "contractName": "SamuraiTiers",
      "contractAddress": "0x2bb8fc0196becd84bac853e32c9c252343699186",
      "function": "addTier(string,uint256,uint256,uint256,uint256,uint256)",
      "arguments": [
        "\"Hatamoto\"",
        "0",
        "100000000000000000000000",
        "199999000000000000000000",
        "151000000000000000000",
        "300000000000000000000"
      ],
      "transaction": {
        "from": "0xcde00be56479f95b5e33de136ad820ffae996009",
        "to": "0x2bb8fc0196becd84bac853e32c9c252343699186",
        "gas": "0x31b09",
        "value": "0x0",
        "input": "0x8e80eacf00000000000000000000000000000000000000000000000000000000000000c0000000000000000000000000000000000000000000000000000000000000000000000000000000000000000000000000000000000000152d02c7e14af6800000000000000000000000000000000000000000000000002a59f7af0be2459c00000000000000000000000000000000000000000000000000082f8bc3f7bbfc000000000000000000000000000000000000000000000000001043561a88293000000000000000000000000000000000000000000000000000000000000000000008486174616d6f746f000000000000000000000000000000000000000000000000",
        "nonce": "0x28",
        "chainId": "0x2105"
      },
      "additionalContracts": [],
      "isFixedGasLimit": false
    },
    {
      "hash": "0x2f4f63e96352c2f676337428e71f36ba6f81e14fe57d29ce449da828de3e9540",
      "transactionType": "CALL",
      "contractName": "SamuraiTiers",
      "contractAddress": "0x2bb8fc0196becd84bac853e32c9c252343699186",
      "function": "addTier(string,uint256,uint256,uint256,uint256,uint256)",
      "arguments": [
        "\"Shogun\"",
        "1",
        "200000000000000000000000",
        "999999999000000000000000000",
        "301000000000000000000",
        "999999999000000000000000000"
      ],
      "transaction": {
        "from": "0xcde00be56479f95b5e33de136ad820ffae996009",
        "to": "0x2bb8fc0196becd84bac853e32c9c252343699186",
        "gas": "0x38699",
        "value": "0x0",
        "input": "0x8e80eacf00000000000000000000000000000000000000000000000000000000000000c00000000000000000000000000000000000000000000000000000000000000001000000000000000000000000000000000000000000002a5a058fc295ed0000000000000000000000000000000000000000000000033b2e3c91efc989409c00000000000000000000000000000000000000000000000000105136d13bd09400000000000000000000000000000000000000000000033b2e3c91efc989409c0000000000000000000000000000000000000000000000000000000000000000000653686f67756e0000000000000000000000000000000000000000000000000000",
        "nonce": "0x29",
        "chainId": "0x2105"
      },
      "additionalContracts": [],
      "isFixedGasLimit": false
    }
  ],
  "receipts": [
    {
      "status": "0x1",
      "cumulativeGasUsed": "0xf8309a",
      "logs": [
        {
          "address": "0x2bb8fc0196becd84bac853e32c9c252343699186",
          "topics": [
            "0x8be0079c531659141344cd1fd0a4f28419497f9722a3daafe3b4186f6b6457e0",
            "0x0000000000000000000000000000000000000000000000000000000000000000",
            "0x000000000000000000000000cde00be56479f95b5e33de136ad820ffae996009"
          ],
          "data": "0x",
          "blockHash": "0x13f9d9e39eee4a5801368ca8d7f8ebe339dd98843f19f6ee8ef64a7660bf563b",
          "blockNumber": "0x122b47b",
          "transactionHash": "0x6bc11f5b40b8c1bece243d6a219e92c49e33b6a71d30095b7a133f1693a647fe",
          "transactionIndex": "0x4e",
          "logIndex": "0x10c",
          "removed": false
        },
        {
          "address": "0x2bb8fc0196becd84bac853e32c9c252343699186",
          "topics": [
            "0x4a63c11355051bcaacfe9bccd58e7a363904399e83b8784c05f598dcb09cf75a"
          ],
          "data": "0x000000000000000000000000519ed34150300dc0d04d50a5ff401177a92b4406000000000000000000000000fb691697bdaf1857c748c004cc7dab3d234e062e000000000000000000000000f96bc096dd1e52dce4d595b6c4b8c5d2200db1e5",
          "blockHash": "0x13f9d9e39eee4a5801368ca8d7f8ebe339dd98843f19f6ee8ef64a7660bf563b",
          "blockNumber": "0x122b47b",
          "transactionHash": "0x6bc11f5b40b8c1bece243d6a219e92c49e33b6a71d30095b7a133f1693a647fe",
          "transactionIndex": "0x4e",
          "logIndex": "0x10d",
          "removed": false
        }
      ],
      "logsBloom": "0x00000000000000200000000000000000000000000000000000800000000000000000000000400000000000000000000000000000000000000000000008000000008000000000000000000080000000000001000000000000000000000000000000000000020000000000000000000800000000000000020000000000000000400000000000000000000000000000000000000000000000000000000000000000000000000000000000000000000000000000000000000080000000000000000080000000000000000000000040000000000000000000000000000000000020000000000000000000000000000000000000000000000000000000000000000000",
      "type": "0x2",
      "transactionHash": "0x6bc11f5b40b8c1bece243d6a219e92c49e33b6a71d30095b7a133f1693a647fe",
      "transactionIndex": "0x4e",
      "blockHash": "0x13f9d9e39eee4a5801368ca8d7f8ebe339dd98843f19f6ee8ef64a7660bf563b",
      "blockNumber": "0x122b47b",
      "gasUsed": "0x12d701",
      "effectiveGasPrice": "0x17d7d4",
      "from": "0xcde00be56479f95b5e33de136ad820ffae996009",
      "to": null,
      "contractAddress": "0x2bb8fc0196becd84bac853e32c9c252343699186",
      "l1BaseFeeScalar": "0x8dd",
      "l1BlobBaseFee": "0x1",
      "l1BlobBaseFeeScalar": "0x101c12",
      "l1Fee": "0x1c09e261fb",
      "l1GasPrice": "0x3c281d16",
      "l1GasUsed": "0xcd6a"
    },
    {
      "status": "0x1",
      "cumulativeGasUsed": "0xfab2da",
      "logs": [
        {
          "address": "0x2bb8fc0196becd84bac853e32c9c252343699186",
          "topics": [
            "0x64a55044d1f2eddebe1b90e8e2853e8e96931cefadbfa0b2ceb34bee36061941"
          ],
          "data": "0x0000000000000000000000000000000000000000000000000000000000000001",
          "blockHash": "0x13f9d9e39eee4a5801368ca8d7f8ebe339dd98843f19f6ee8ef64a7660bf563b",
          "blockNumber": "0x122b47b",
          "transactionHash": "0xa0a5b14d01c37a9e23ea895cab4b18c52a401a5f61362cbee8ec8ddb61e5afc4",
          "transactionIndex": "0x4f",
          "logIndex": "0x10e",
          "removed": false
        }
      ],
      "logsBloom": "0x00000000100000000000000000000000000000000000000000000000000000000000000000000000000000000000000000000000000000000000000008000000000040000000000000000000000000000000000000000000000000000000000000000000000000000000000000000000000000000000020000000000000000000000000000000000000000000000000000000000000000000000000000000000002000000000000000000000000000000000000000000000000000000000000000000000000000000000000040000000000000000000000000000000000000000000000000000000000000000000000000000000000000000000000000000000",
      "type": "0x2",
      "transactionHash": "0xa0a5b14d01c37a9e23ea895cab4b18c52a401a5f61362cbee8ec8ddb61e5afc4",
      "transactionIndex": "0x4f",
      "blockHash": "0x13f9d9e39eee4a5801368ca8d7f8ebe339dd98843f19f6ee8ef64a7660bf563b",
      "blockNumber": "0x122b47b",
      "gasUsed": "0x28240",
      "effectiveGasPrice": "0x17d7d4",
      "from": "0xcde00be56479f95b5e33de136ad820ffae996009",
      "to": "0x2bb8fc0196becd84bac853e32c9c252343699186",
      "contractAddress": null,
      "l1BaseFeeScalar": "0x8dd",
      "l1BlobBaseFee": "0x1",
      "l1BlobBaseFeeScalar": "0x101c12",
      "l1Fee": "0x10e8a5e14",
      "l1GasPrice": "0x3c281d16",
      "l1GasUsed": "0x7be"
    },
    {
      "status": "0x1",
      "cumulativeGasUsed": "0xfcf25a",
      "logs": [
        {
          "address": "0x2bb8fc0196becd84bac853e32c9c252343699186",
          "topics": [
            "0x64a55044d1f2eddebe1b90e8e2853e8e96931cefadbfa0b2ceb34bee36061941"
          ],
          "data": "0x0000000000000000000000000000000000000000000000000000000000000002",
          "blockHash": "0x13f9d9e39eee4a5801368ca8d7f8ebe339dd98843f19f6ee8ef64a7660bf563b",
          "blockNumber": "0x122b47b",
          "transactionHash": "0x12c8a7e4aae5de23490c28303176f787189f580cb8964e4bb85a142038726976",
          "transactionIndex": "0x50",
          "logIndex": "0x10f",
          "removed": false
        }
      ],
      "logsBloom": "0x00000000100000000000000000000000000000000000000000000000000000000000000000000000000000000000000000000000000000000000000008000000000040000000000000000000000000000000000000000000000000000000000000000000000000000000000000000000000000000000020000000000000000000000000000000000000000000000000000000000000000000000000000000000002000000000000000000000000000000000000000000000000000000000000000000000000000000000000040000000000000000000000000000000000000000000000000000000000000000000000000000000000000000000000000000000",
      "type": "0x2",
      "transactionHash": "0x12c8a7e4aae5de23490c28303176f787189f580cb8964e4bb85a142038726976",
      "transactionIndex": "0x50",
      "blockHash": "0x13f9d9e39eee4a5801368ca8d7f8ebe339dd98843f19f6ee8ef64a7660bf563b",
      "blockNumber": "0x122b47b",
      "gasUsed": "0x23f80",
      "effectiveGasPrice": "0x17d7d4",
      "from": "0xcde00be56479f95b5e33de136ad820ffae996009",
      "to": "0x2bb8fc0196becd84bac853e32c9c252343699186",
      "contractAddress": null,
      "l1BaseFeeScalar": "0x8dd",
      "l1BlobBaseFee": "0x1",
      "l1BlobBaseFeeScalar": "0x101c12",
      "l1Fee": "0x1105e0aef",
      "l1GasPrice": "0x3c281d16",
      "l1GasUsed": "0x7cb"
    },
    {
      "status": "0x1",
      "cumulativeGasUsed": "0xff31ce",
      "logs": [
        {
          "address": "0x2bb8fc0196becd84bac853e32c9c252343699186",
          "topics": [
            "0x64a55044d1f2eddebe1b90e8e2853e8e96931cefadbfa0b2ceb34bee36061941"
          ],
          "data": "0x0000000000000000000000000000000000000000000000000000000000000003",
          "blockHash": "0x13f9d9e39eee4a5801368ca8d7f8ebe339dd98843f19f6ee8ef64a7660bf563b",
          "blockNumber": "0x122b47b",
          "transactionHash": "0x48c15c60dc9bd9ccdf53f1a3b2783859351411d5a84f49aa651a36f2d96b6296",
          "transactionIndex": "0x51",
          "logIndex": "0x110",
          "removed": false
        }
      ],
      "logsBloom": "0x00000000100000000000000000000000000000000000000000000000000000000000000000000000000000000000000000000000000000000000000008000000000040000000000000000000000000000000000000000000000000000000000000000000000000000000000000000000000000000000020000000000000000000000000000000000000000000000000000000000000000000000000000000000002000000000000000000000000000000000000000000000000000000000000000000000000000000000000040000000000000000000000000000000000000000000000000000000000000000000000000000000000000000000000000000000",
      "type": "0x2",
      "transactionHash": "0x48c15c60dc9bd9ccdf53f1a3b2783859351411d5a84f49aa651a36f2d96b6296",
      "transactionIndex": "0x51",
      "blockHash": "0x13f9d9e39eee4a5801368ca8d7f8ebe339dd98843f19f6ee8ef64a7660bf563b",
      "blockNumber": "0x122b47b",
      "gasUsed": "0x23f74",
      "effectiveGasPrice": "0x17d7d4",
      "from": "0xcde00be56479f95b5e33de136ad820ffae996009",
      "to": "0x2bb8fc0196becd84bac853e32c9c252343699186",
      "contractAddress": null,
      "l1BaseFeeScalar": "0x8dd",
      "l1BlobBaseFee": "0x1",
      "l1BlobBaseFeeScalar": "0x101c12",
      "l1Fee": "0x10e8a5e14",
      "l1GasPrice": "0x3c281d16",
      "l1GasUsed": "0x7be"
    },
    {
      "status": "0x1",
      "cumulativeGasUsed": "0x1017166",
      "logs": [
        {
          "address": "0x2bb8fc0196becd84bac853e32c9c252343699186",
          "topics": [
            "0x64a55044d1f2eddebe1b90e8e2853e8e96931cefadbfa0b2ceb34bee36061941"
          ],
          "data": "0x0000000000000000000000000000000000000000000000000000000000000004",
          "blockHash": "0x13f9d9e39eee4a5801368ca8d7f8ebe339dd98843f19f6ee8ef64a7660bf563b",
          "blockNumber": "0x122b47b",
          "transactionHash": "0xad554a98638f02443a4aa304faa982a1613549b03e0fffee9a26162dfe00f373",
          "transactionIndex": "0x52",
          "logIndex": "0x111",
          "removed": false
        }
      ],
      "logsBloom": "0x00000000100000000000000000000000000000000000000000000000000000000000000000000000000000000000000000000000000000000000000008000000000040000000000000000000000000000000000000000000000000000000000000000000000000000000000000000000000000000000020000000000000000000000000000000000000000000000000000000000000000000000000000000000002000000000000000000000000000000000000000000000000000000000000000000000000000000000000040000000000000000000000000000000000000000000000000000000000000000000000000000000000000000000000000000000",
      "type": "0x2",
      "transactionHash": "0xad554a98638f02443a4aa304faa982a1613549b03e0fffee9a26162dfe00f373",
      "transactionIndex": "0x52",
      "blockHash": "0x13f9d9e39eee4a5801368ca8d7f8ebe339dd98843f19f6ee8ef64a7660bf563b",
      "blockNumber": "0x122b47b",
      "gasUsed": "0x23f98",
      "effectiveGasPrice": "0x17d7d4",
      "from": "0xcde00be56479f95b5e33de136ad820ffae996009",
      "to": "0x2bb8fc0196becd84bac853e32c9c252343699186",
      "contractAddress": null,
      "l1BaseFeeScalar": "0x8dd",
      "l1BlobBaseFee": "0x1",
      "l1BlobBaseFeeScalar": "0x101c12",
      "l1Fee": "0x1140564a6",
      "l1GasPrice": "0x3c281d16",
      "l1GasUsed": "0x7e6"
    },
    {
      "status": "0x1",
      "cumulativeGasUsed": "0x103fede",
      "logs": [
        {
          "address": "0x2bb8fc0196becd84bac853e32c9c252343699186",
          "topics": [
            "0x64a55044d1f2eddebe1b90e8e2853e8e96931cefadbfa0b2ceb34bee36061941"
          ],
          "data": "0x0000000000000000000000000000000000000000000000000000000000000005",
          "blockHash": "0x13f9d9e39eee4a5801368ca8d7f8ebe339dd98843f19f6ee8ef64a7660bf563b",
          "blockNumber": "0x122b47b",
          "transactionHash": "0x2f4f63e96352c2f676337428e71f36ba6f81e14fe57d29ce449da828de3e9540",
          "transactionIndex": "0x53",
          "logIndex": "0x112",
          "removed": false
        }
      ],
      "logsBloom": "0x00000000100000000000000000000000000000000000000000000000000000000000000000000000000000000000000000000000000000000000000008000000000040000000000000000000000000000000000000000000000000000000000000000000000000000000000000000000000000000000020000000000000000000000000000000000000000000000000000000000000000000000000000000000002000000000000000000000000000000000000000000000000000000000000000000000000000000000000040000000000000000000000000000000000000000000000000000000000000000000000000000000000000000000000000000000",
      "type": "0x2",
      "transactionHash": "0x2f4f63e96352c2f676337428e71f36ba6f81e14fe57d29ce449da828de3e9540",
      "transactionIndex": "0x53",
      "blockHash": "0x13f9d9e39eee4a5801368ca8d7f8ebe339dd98843f19f6ee8ef64a7660bf563b",
      "blockNumber": "0x122b47b",
      "gasUsed": "0x28d78",
      "effectiveGasPrice": "0x17d7d4",
      "from": "0xcde00be56479f95b5e33de136ad820ffae996009",
      "to": "0x2bb8fc0196becd84bac853e32c9c252343699186",
      "contractAddress": null,
      "l1BaseFeeScalar": "0x8dd",
      "l1BlobBaseFee": "0x1",
      "l1BlobBaseFeeScalar": "0x101c12",
      "l1Fee": "0x10ae3045d",
      "l1GasPrice": "0x3c281d16",
      "l1GasUsed": "0x7a3"
    }
  ],
  "libraries": [],
  "pending": [],
  "returns": {
    "samuraiTiers": {
      "internal_type": "contract SamuraiTiers",
      "value": "0x2Bb8Fc0196becd84bac853E32c9c252343699186"
    }
  },
  "timestamp": 1724892658,
  "chain": 8453,
  "commit": "a907d28"
}