{
  "transactions": [
    {
      "hash": "0x84fdbeaae7c8d4337b68e53017802c2702ff3e78bc7c1a313c4f57737b88edba",
      "transactionType": "CREATE",
      "contractName": "SamuraiTiers",
      "contractAddress": "0xdb0ee72ed5190e9ef7eec288a92f73c5cf3b3c74",
      "function": null,
      "arguments": [
        "0x519eD34150300dC0D04d50a5Ff401177A92b4406",
        "0xfb691697BDAf1857C748C004cC7dab3d234E062E",
        "0xf96Bc096dd1E52dcE4d595B6C4B8c5d2200db1E5"
      ],
      "transaction": {
        "from": "0xc2a96b13a975c656f60f401a5f72851af4717d4a",
        "gas": "0x17e04b",
        "value": "0x0",
        "input": "0x6080346101d8576000906114893881900390601f8201601f191683016001600160401b038111848210176101c457918084926060946040528339810103126101c05761004a816101dd565b90610063604061005c602084016101dd565b92016101dd565b9133156101ac578354336001600160a01b031982168117865560405195916001600160a01b03167f8be0079c531659141344cd1fd0a4f28419497f9722a3daafe3b4186f6b6457e08380a3506001600160a01b0316928315158061019a575b80610188575b1561015457600280546001600160a01b031990811686179091556003805482166001600160a01b03808616918217909255600480549093169186169182179092556040805187815260208101939093528201527f4a63c11355051bcaacfe9bccd58e7a363904399e83b8784c05f598dcb09cf75a90606090a16001805560405161129790816101f28239f35b62461bcd60e51b815260206004820152600f60248201526e496e76616c6964206164647265737360881b6044820152606490fd5b506001600160a01b03831615156100c8565b506001600160a01b03821615156100c2565b631e4fbdf760e01b84526004849052602484fd5b5080fd5b634e487b7160e01b85526041600452602485fd5b600080fd5b51906001600160a01b03821682036101d85756fe6080604052600436101561001257600080fd5b60003560e01c8063039af9eb146109ab578063289c3ee4146107a557806347ccca021461077c57806361bc221a1461075e578063715018a6146107055780637497211b146105c25780638da5cb5b146105995780638e80eacf146103385780639538d25f146102fc578063b45aae52146102c8578063c5ec78741461029f578063ecb8fc911461016d578063f2fde38b146100e45763f83d08ba146100b657600080fd5b346100df5760003660031901126100df576003546040516001600160a01b039091168152602090f35b600080fd5b346100df5760203660031901126100df576100fd610c2f565b610105611216565b6001600160a01b0316801561015757600080546001600160a01b03198116831782556001600160a01b0316907f8be0079c531659141344cd1fd0a4f28419497f9722a3daafe3b4186f6b6457e09080a3005b631e4fbdf760e01b600052600060045260246000fd5b346100df5760603660031901126100df57610186610c2f565b6024356001600160a01b038116908190036100df576044356001600160a01b03811692908390036100df576101b9611216565b6101c161123f565b6001600160a01b031680151580610296575b8061028d575b15610256577f4a63c11355051bcaacfe9bccd58e7a363904399e83b8784c05f598dcb09cf75a92606092826001600160601b0360a01b6002541617600255806001600160601b0360a01b6003541617600355816001600160601b0360a01b600454161760045560405192835260208301526040820152a160018055005b60405162461bcd60e51b815260206004820152600f60248201526e496e76616c6964206164647265737360881b6044820152606490fd5b508215156101d9565b508115156101d3565b346100df5760003660031901126100df576004546040516001600160a01b039091168152602090f35b346100df5760203660031901126100df576102f86102ec6102e7610c2f565b610e7a565b60405191829182610be2565b0390f35b346100df5760203660031901126100df5760043567ffffffffffffffff81116100df576102ec6103336102f8923690600401610b8b565b610c9d565b346100df5760c03660031901126100df5760043567ffffffffffffffff81116100df57610369903690600401610b8b565b610371611216565b61037961123f565b60055460018101809111610583576040519161039483610a61565b8252602082019160243583526040810160443581526060820160643581526080830190608435825260a084019260a43584528560005260066020526040600020945196875167ffffffffffffffff811161056d576103f28754610a27565b601f8111610530575b506020601f821160011461049e579161045982600597959360209b9a9997957f64a55044d1f2eddebe1b90e8e2853e8e96931cefadbfa0b2ceb34bee360619419d600092610493575b50508160011b916000199060031b1c19161790565b87555b51600187015551600286015551600385015551600484015551910155610483600554610c5c565b600555604051908152a160018055005b015190508d80610444565b601f1982169988600052816000209a60005b8181106105185750927f64a55044d1f2eddebe1b90e8e2853e8e96931cefadbfa0b2ceb34bee360619419b60209b9a999795936001938360059b9997106104ff575b505050811b01875561045c565b015160001960f88460031b161c191690558c80806104f2565b838301518d556001909c019b602093840193016104b0565b61055d90886000526020600020601f840160051c81019160208510610563575b601f0160051c0190610c45565b896103fb565b9091508190610550565b634e487b7160e01b600052604160045260246000fd5b634e487b7160e01b600052601160045260246000fd5b346100df5760003660031901126100df576000546040516001600160a01b039091168152602090f35b346100df5760203660031901126100df576004356105de611216565b6105e661123f565b80600052600660205260406000209060056040519261060484610a61565b61060d81610a9f565b845260018101546020850152600281015460408501526003810154606085015260048101546080850152015460a0830152600052600660205260006005604082206106588154610a27565b806106c3575b508260018201558260028201558260038201558260048201550155600554801561058357600019016005556040517f468a84801967f1312f6634863f8daa487918eb9e8a903875b82caa7202b0deb49181906106ba9082610be2565b0390a160018055005b601f81116001146106d957508281555b8461065e565b818452602084206106f491601f01841c810190600101610c45565b8083528260208120818355556106d3565b346100df5760003660031901126100df5761071e611216565b600080546001600160a01b0319811682556001600160a01b03167f8be0079c531659141344cd1fd0a4f28419497f9722a3daafe3b4186f6b6457e08280a3005b346100df5760003660031901126100df576020600554604051908152f35b346100df5760003660031901126100df576002546040516001600160a01b039091168152602090f35b346100df5760e03660031901126100df5760043560243567ffffffffffffffff81116100df576107d9903690600401610b8b565b906107e2611216565b6107ea61123f565b604051916107f783610a61565b825260208201916044358352604081016064358152606082016084358152608083019060a435825260a084019260c43584528560005260066020526040600020945196875167ffffffffffffffff811161056d576108558754610a27565b601f8111610979575b506020601f82116001146108e757916108bb82600597959360209b9a9997957f208509800c5cb9707f116ef96a1d456499ab9fa3c8edc1cdf381fe5216d5b1739d6000926104935750508160011b916000199060031b1c19161790565b87555b51600187015551600286015551600385015551600484015551910155604051908152a160018055005b601f1982169988600052816000209a60005b8181106109615750927f208509800c5cb9707f116ef96a1d456499ab9fa3c8edc1cdf381fe5216d5b1739b60209b9a999795936001938360059b999710610948575b505050811b0187556108be565b015160001960f88460031b161c191690558c808061093b565b838301518d556001909c019b602093840193016108f9565b6109a590886000526020600020601f840160051c8101916020851061056357601f0160051c0190610c45565b8961085e565b346100df5760203660031901126100df576004356000526006602052610a0960406000206109d881610a9f565b906001810154906002810154906003810154600560048301549201549260405196879660c0885260c0880190610b66565b94602087015260408601526060850152608084015260a08301520390f35b90600182811c92168015610a57575b6020831014610a4157565b634e487b7160e01b600052602260045260246000fd5b91607f1691610a36565b60c0810190811067ffffffffffffffff82111761056d57604052565b90601f8019910116810190811067ffffffffffffffff82111761056d57604052565b9060405191826000825492610ab384610a27565b8084529360018116908115610b215750600114610ada575b50610ad892500383610a7d565b565b90506000929192526020600020906000915b818310610b05575050906020610ad89282010138610acb565b6020919350806001915483858901015201910190918492610aec565b905060209250610ad894915060ff191682840152151560051b82010138610acb565b60005b838110610b565750506000910152565b8181015183820152602001610b46565b90602091610b7f81518092818552858086019101610b43565b601f01601f1916010190565b81601f820112156100df5780359067ffffffffffffffff821161056d5760405192610bc0601f8401601f191660200185610a7d565b828452602083830101116100df57816000926020809301838601378301015290565b6020815260c060a0610bff845183602086015260e0850190610b66565b93602081015160408501526040810151606085015260608101516080850152608081015182850152015191015290565b600435906001600160a01b03821682036100df57565b818110610c50575050565b60008155600101610c45565b60001981146105835760010190565b60405190610c7882610a61565b600060a083606081528260208201528260408201528260608201528260808201520152565b610ca5610c6b565b50604051610cd460208281610cc38183019687815193849201610b43565b81010301601f198101835282610a7d565b5190206005549060015b82811115610d2f57505050604051610cf581610a61565b604051610d03602082610a7d565b60008152815260006020820152600060408201526000606082015260006080820152600060a082015290565b80600052600660205260406000206040516020810191816000825492610d5484610a27565b9360018116908115610e325750600114610df0575b50610d7d925003601f198101835282610a7d565b5190208214610d9457610d8f90610c5c565b610cde565b91505060005260066020526040600020600560405191610db383610a61565b610dbc81610a9f565b835260018101546020840152600281015460408401526003810154606084015260048101546080840152015460a082015290565b9150506000528160206000206000905b838210610e185750506020610d7d9282010138610d69565b602091925080600191548385880101520191018391610e00565b60ff1916875250610d7d938015150283016020019150389050610d69565b8051821015610e645760209160051b010190565b634e487b7160e01b600052603260045260246000fd5b90602490610e86610c6b565b506002546040516370a0823160e01b81526001600160a01b039485166004820181905294909360209285928391165afa9182156110ce576000926111e1575b50600354604051638af37ef160e01b8152600481018590529190600090839060249082906001600160a01b03165afa9182156110ce576000926110da575b50600093845b8351861015610f4d576020610f1e8786610e50565b5101516040610f2d8887610e50565b510151810390811161058357810180911161058357600190950194610f09565b939194509150602060018060a01b0360045416926024604051809581936370a0823160e01b835260048301525afa9182156110ce57600092611096575b5060011115611068576005549160015b83811115610fb25750505050604051610cf581610a61565b806000526006602052604060002060405190610fcd82610a61565b610fd681610a9f565b825260018101546020830152600281015480604084015260038201549182606085015260056004820154918260808701520154918260a0860152861015928361105d575b50821561103f575b5050611037575061103290610c5c565b610f9a565b935050505090565b861015915081611052575b503880611022565b90508411153861104a565b86111592503861101a565b505061109360405161107b604082610a7d565b600681526529b437b3bab760d11b6020820152610c9d565b90565b90916020823d6020116110c6575b816110b160209383610a7d565b810103126110c3575051906001610f8a565b80fd5b3d91506110a4565b6040513d6000823e3d90fd5b90913d8082843e6110eb8184610a7d565b8201916020818403126111dd5780519067ffffffffffffffff82116111c5570182601f820112156111dd5780519167ffffffffffffffff83116111c9576040519361113c60208560051b0186610a7d565b838552602060c08187019502840101928184116111c557602001935b83851061116b5750505050509038610f03565b60c0858303126111c557602060c09160405161118681610a61565b87518152828801518382015260408801516040820152606088015160608201526080880151608082015260a088015160a0820152815201940193611158565b8280fd5b634e487b7160e01b81526041600452602490fd5b5080fd5b9091506020813d60201161120e575b816111fd60209383610a7d565b810103126100df5751906024610ec5565b3d91506111f0565b6000546001600160a01b0316330361122a57565b63118cdaa760e01b6000523360045260246000fd5b600260015414611250576002600155565b633ee5aeb560e01b60005260046000fdfea26469706673582212202dfd070f242076407e3e7db6fccee806baa4a3082fe5464c4c45c341feefac5564736f6c634300081a0033000000000000000000000000519ed34150300dc0d04d50a5ff401177a92b4406000000000000000000000000fb691697bdaf1857c748c004cc7dab3d234e062e000000000000000000000000f96bc096dd1e52dce4d595b6c4b8c5d2200db1e5",
        "nonce": "0x18c",
        "chainId": "0x2105"
      },
      "additionalContracts": [],
      "isFixedGasLimit": false
    },
    {
      "hash": "0x4f90d847b008325916611d710716e6e6c834046c2a0e1178e36c7368dd126618",
      "transactionType": "CALL",
      "contractName": "SamuraiTiers",
      "contractAddress": "0xdb0ee72ed5190e9ef7eec288a92f73c5cf3b3c74",
      "function": "addTier(string,uint256,uint256,uint256,uint256,uint256)",
      "arguments": [
        "\"Ronin\"",
        "0",
        "15000000000000000000000",
        "29999000000000000000000",
        "20000000000000000000",
        "44000000000000000000"
      ],
      "transaction": {
        "from": "0xc2a96b13a975c656f60f401a5f72851af4717d4a",
        "to": "0xdb0ee72ed5190e9ef7eec288a92f73c5cf3b3c74",
        "gas": "0x3771b",
        "value": "0x0",
        "input": "0x8e80eacf00000000000000000000000000000000000000000000000000000000000000c0000000000000000000000000000000000000000000000000000000000000000000000000000000000000000000000000000000000000032d26d12e980b60000000000000000000000000000000000000000000000000065a3fc1a67c6f5c0000000000000000000000000000000000000000000000000001158e460913d00000000000000000000000000000000000000000000000000002629f66e0c53000000000000000000000000000000000000000000000000000000000000000000005526f6e696e000000000000000000000000000000000000000000000000000000",
        "nonce": "0x18d",
        "chainId": "0x2105"
      },
      "additionalContracts": [],
      "isFixedGasLimit": false
    },
    {
      "hash": "0x8274c8b903af07a77f0fec79f57451a7d6886516f03b92f836ac930476ebbb64",
      "transactionType": "CALL",
      "contractName": "SamuraiTiers",
      "contractAddress": "0xdb0ee72ed5190e9ef7eec288a92f73c5cf3b3c74",
      "function": "addTier(string,uint256,uint256,uint256,uint256,uint256)",
      "arguments": [
        "\"Gokenin\"",
        "0",
        "30000000000000000000000",
        "59999000000000000000000",
        "45000000000000000000",
        "90000000000000000000"
      ],
      "transaction": {
        "from": "0xc2a96b13a975c656f60f401a5f72851af4717d4a",
        "to": "0xdb0ee72ed5190e9ef7eec288a92f73c5cf3b3c74",
        "gas": "0x31ae8",
        "value": "0x0",
        "input": "0x8e80eacf00000000000000000000000000000000000000000000000000000000000000c0000000000000000000000000000000000000000000000000000000000000000000000000000000000000000000000000000000000000065a4da25d3016c00000000000000000000000000000000000000000000000000cb48d6403ac861c000000000000000000000000000000000000000000000000000270801d946c940000000000000000000000000000000000000000000000000004e1003b28d92800000000000000000000000000000000000000000000000000000000000000000007476f6b656e696e00000000000000000000000000000000000000000000000000",
        "nonce": "0x18e",
        "chainId": "0x2105"
      },
      "additionalContracts": [],
      "isFixedGasLimit": false
    },
    {
      "hash": "0x06d26959f2f919d6bd6d781d0f6634a94c3c1b98e59355dc9af354d8d1ae14eb",
      "transactionType": "CALL",
      "contractName": "SamuraiTiers",
      "contractAddress": "0xdb0ee72ed5190e9ef7eec288a92f73c5cf3b3c74",
      "function": "addTier(string,uint256,uint256,uint256,uint256,uint256)",
      "arguments": [
        "\"Goshi\"",
        "0",
        "60000000000000000000000",
        "99999000000000000000000",
        "91000000000000000000",
        "150000000000000000000"
      ],
      "transaction": {
        "from": "0xc2a96b13a975c656f60f401a5f72851af4717d4a",
        "to": "0xdb0ee72ed5190e9ef7eec288a92f73c5cf3b3c74",
        "gas": "0x31ad7",
        "value": "0x0",
        "input": "0x8e80eacf00000000000000000000000000000000000000000000000000000000000000c00000000000000000000000000000000000000000000000000000000000000000000000000000000000000000000000000000000000000cb49b44ba602d80000000000000000000000000000000000000000000000000152cf4e72a974f1c0000000000000000000000000000000000000000000000000004eee0f1dc808c000000000000000000000000000000000000000000000000000821ab0d44149800000000000000000000000000000000000000000000000000000000000000000005476f736869000000000000000000000000000000000000000000000000000000",
        "nonce": "0x18f",
        "chainId": "0x2105"
      },
      "additionalContracts": [],
      "isFixedGasLimit": false
    },
    {
      "hash": "0x193a65cd0a50c60986acf67cd859f348832b3b4f6d53a422b6fae41d269218c4",
      "transactionType": "CALL",
      "contractName": "SamuraiTiers",
      "contractAddress": "0xdb0ee72ed5190e9ef7eec288a92f73c5cf3b3c74",
      "function": "addTier(string,uint256,uint256,uint256,uint256,uint256)",
      "arguments": [
        "\"Hatamoto\"",
        "0",
        "100000000000000000000000",
        "199999000000000000000000",
        "151000000000000000000",
        "300000000000000000000"
      ],
      "transaction": {
        "from": "0xc2a96b13a975c656f60f401a5f72851af4717d4a",
        "to": "0xdb0ee72ed5190e9ef7eec288a92f73c5cf3b3c74",
        "gas": "0x31b09",
        "value": "0x0",
        "input": "0x8e80eacf00000000000000000000000000000000000000000000000000000000000000c0000000000000000000000000000000000000000000000000000000000000000000000000000000000000000000000000000000000000152d02c7e14af6800000000000000000000000000000000000000000000000002a59f7af0be2459c00000000000000000000000000000000000000000000000000082f8bc3f7bbfc000000000000000000000000000000000000000000000000001043561a88293000000000000000000000000000000000000000000000000000000000000000000008486174616d6f746f000000000000000000000000000000000000000000000000",
        "nonce": "0x190",
        "chainId": "0x2105"
      },
      "additionalContracts": [],
      "isFixedGasLimit": false
    },
    {
      "hash": "0x0b46359d156d02a5d5f37f601944e2931955629d6c85e7d3246f7442babbe1c4",
      "transactionType": "CALL",
      "contractName": "SamuraiTiers",
      "contractAddress": "0xdb0ee72ed5190e9ef7eec288a92f73c5cf3b3c74",
      "function": "addTier(string,uint256,uint256,uint256,uint256,uint256)",
      "arguments": [
        "\"Shogun\"",
        "1",
        "200000000000000000000000",
        "999999999000000000000000000",
        "301000000000000000000",
        "999999999000000000000000000"
      ],
      "transaction": {
        "from": "0xc2a96b13a975c656f60f401a5f72851af4717d4a",
        "to": "0xdb0ee72ed5190e9ef7eec288a92f73c5cf3b3c74",
        "gas": "0x38699",
        "value": "0x0",
        "input": "0x8e80eacf00000000000000000000000000000000000000000000000000000000000000c00000000000000000000000000000000000000000000000000000000000000001000000000000000000000000000000000000000000002a5a058fc295ed0000000000000000000000000000000000000000000000033b2e3c91efc989409c00000000000000000000000000000000000000000000000000105136d13bd09400000000000000000000000000000000000000000000033b2e3c91efc989409c0000000000000000000000000000000000000000000000000000000000000000000653686f67756e0000000000000000000000000000000000000000000000000000",
        "nonce": "0x191",
        "chainId": "0x2105"
      },
      "additionalContracts": [],
      "isFixedGasLimit": false
    }
  ],
  "receipts": [
    {
      "status": "0x1",
      "cumulativeGasUsed": "0xa4df96",
      "logs": [
        {
          "address": "0xdb0ee72ed5190e9ef7eec288a92f73c5cf3b3c74",
          "topics": [
            "0x8be0079c531659141344cd1fd0a4f28419497f9722a3daafe3b4186f6b6457e0",
            "0x0000000000000000000000000000000000000000000000000000000000000000",
            "0x000000000000000000000000c2a96b13a975c656f60f401a5f72851af4717d4a"
          ],
          "data": "0x",
          "blockHash": "0x8d897f1f5446f20f766d44811c1cf2209c651e949bb5d16c459b9ad599df66e2",
          "blockNumber": "0xeb3772",
          "transactionHash": "0x84fdbeaae7c8d4337b68e53017802c2702ff3e78bc7c1a313c4f57737b88edba",
          "transactionIndex": "0x38",
          "logIndex": "0xc9",
          "removed": false
        },
        {
          "address": "0xdb0ee72ed5190e9ef7eec288a92f73c5cf3b3c74",
          "topics": [
            "0x4a63c11355051bcaacfe9bccd58e7a363904399e83b8784c05f598dcb09cf75a"
          ],
          "data": "0x000000000000000000000000519ed34150300dc0d04d50a5ff401177a92b4406000000000000000000000000fb691697bdaf1857c748c004cc7dab3d234e062e000000000000000000000000f96bc096dd1e52dce4d595b6c4b8c5d2200db1e5",
          "blockHash": "0x8d897f1f5446f20f766d44811c1cf2209c651e949bb5d16c459b9ad599df66e2",
          "blockNumber": "0xeb3772",
          "transactionHash": "0x84fdbeaae7c8d4337b68e53017802c2702ff3e78bc7c1a313c4f57737b88edba",
          "transactionIndex": "0x38",
          "logIndex": "0xca",
          "removed": false
        }
      ],
      "logsBloom": "0x00000000000000200000000000000000000000000000000000800000000000000000000000000000000000000000000008080000000000000000000000000000008000002000000000000000000000000001000000000000000000000000000000000000020000000000000000000800000000000000000000000000000000400000000000000000000000000000000000000000000000000000000000000000000000000000000000000000000000000000000000000400000000000000020080000000000000000000000000000000000000000000000000000000000020000002000000000000000000000000000000000000000000000000000000000000",
      "type": "0x2",
      "transactionHash": "0x84fdbeaae7c8d4337b68e53017802c2702ff3e78bc7c1a313c4f57737b88edba",
      "transactionIndex": "0x38",
      "blockHash": "0x8d897f1f5446f20f766d44811c1cf2209c651e949bb5d16c459b9ad599df66e2",
      "blockNumber": "0xeb3772",
      "gasUsed": "0x125f14",
      "effectiveGasPrice": "0x9a63bb",
      "from": "0xc2a96b13a975c656f60f401a5f72851af4717d4a",
      "to": null,
      "contractAddress": "0xdb0ee72ed5190e9ef7eec288a92f73c5cf3b3c74",
      "l1Fee": "0x1e3bb0f9493",
      "l1GasPrice": "0x52b0ca72d",
      "l1GasUsed": "0x14c14"
    },
    {
      "status": "0x1",
      "cumulativeGasUsed": "0xa761d6",
      "logs": [
        {
          "address": "0xdb0ee72ed5190e9ef7eec288a92f73c5cf3b3c74",
          "topics": [
            "0x64a55044d1f2eddebe1b90e8e2853e8e96931cefadbfa0b2ceb34bee36061941"
          ],
          "data": "0x0000000000000000000000000000000000000000000000000000000000000001",
          "blockHash": "0x8d897f1f5446f20f766d44811c1cf2209c651e949bb5d16c459b9ad599df66e2",
          "blockNumber": "0xeb3772",
          "transactionHash": "0x4f90d847b008325916611d710716e6e6c834046c2a0e1178e36c7368dd126618",
          "transactionIndex": "0x39",
          "logIndex": "0xcb",
          "removed": false
        }
      ],
      "logsBloom": "0x00000000100000000000000000000000000000000000000000000000000000000000000000000000000000000000000000000000000000000000000000000000000040000000000000000000000000000000000000000000000000000000000000000000000000000000000000000000000000000000000000000000000000000000000000000000000000000000000000000000000000000000000000000000002000000000000000000000000000000000000000000400000000000000020000000000000000000000000000000000000000000000000000000000000000000002000000000000000000000000000000000000000000000000000000000000",
      "type": "0x2",
      "transactionHash": "0x4f90d847b008325916611d710716e6e6c834046c2a0e1178e36c7368dd126618",
      "transactionIndex": "0x39",
      "blockHash": "0x8d897f1f5446f20f766d44811c1cf2209c651e949bb5d16c459b9ad599df66e2",
      "blockNumber": "0xeb3772",
      "gasUsed": "0x28240",
      "effectiveGasPrice": "0x9a63bb",
      "from": "0xc2a96b13a975c656f60f401a5f72851af4717d4a",
      "to": "0xdb0ee72ed5190e9ef7eec288a92f73c5cf3b3c74",
      "contractAddress": null,
      "l1Fee": "0x132fea901d",
      "l1GasPrice": "0x52b0ca72d",
      "l1GasUsed": "0xd2c"
    },
    {
      "status": "0x1",
      "cumulativeGasUsed": "0xa9a156",
      "logs": [
        {
          "address": "0xdb0ee72ed5190e9ef7eec288a92f73c5cf3b3c74",
          "topics": [
            "0x64a55044d1f2eddebe1b90e8e2853e8e96931cefadbfa0b2ceb34bee36061941"
          ],
          "data": "0x0000000000000000000000000000000000000000000000000000000000000002",
          "blockHash": "0x8d897f1f5446f20f766d44811c1cf2209c651e949bb5d16c459b9ad599df66e2",
          "blockNumber": "0xeb3772",
          "transactionHash": "0x8274c8b903af07a77f0fec79f57451a7d6886516f03b92f836ac930476ebbb64",
          "transactionIndex": "0x3a",
          "logIndex": "0xcc",
          "removed": false
        }
      ],
      "logsBloom": "0x00000000100000000000000000000000000000000000000000000000000000000000000000000000000000000000000000000000000000000000000000000000000040000000000000000000000000000000000000000000000000000000000000000000000000000000000000000000000000000000000000000000000000000000000000000000000000000000000000000000000000000000000000000000002000000000000000000000000000000000000000000400000000000000020000000000000000000000000000000000000000000000000000000000000000000002000000000000000000000000000000000000000000000000000000000000",
      "type": "0x2",
      "transactionHash": "0x8274c8b903af07a77f0fec79f57451a7d6886516f03b92f836ac930476ebbb64",
      "transactionIndex": "0x3a",
      "blockHash": "0x8d897f1f5446f20f766d44811c1cf2209c651e949bb5d16c459b9ad599df66e2",
      "blockNumber": "0xeb3772",
      "gasUsed": "0x23f80",
      "effectiveGasPrice": "0x9a63bb",
      "from": "0xc2a96b13a975c656f60f401a5f72851af4717d4a",
      "to": "0xdb0ee72ed5190e9ef7eec288a92f73c5cf3b3c74",
      "contractAddress": null,
      "l1Fee": "0x1358b406d5",
      "l1GasPrice": "0x52b0ca72d",
      "l1GasUsed": "0xd48"
    },
    {
      "status": "0x1",
      "cumulativeGasUsed": "0xabe0ca",
      "logs": [
        {
          "address": "0xdb0ee72ed5190e9ef7eec288a92f73c5cf3b3c74",
          "topics": [
            "0x64a55044d1f2eddebe1b90e8e2853e8e96931cefadbfa0b2ceb34bee36061941"
          ],
          "data": "0x0000000000000000000000000000000000000000000000000000000000000003",
          "blockHash": "0x8d897f1f5446f20f766d44811c1cf2209c651e949bb5d16c459b9ad599df66e2",
          "blockNumber": "0xeb3772",
          "transactionHash": "0x06d26959f2f919d6bd6d781d0f6634a94c3c1b98e59355dc9af354d8d1ae14eb",
          "transactionIndex": "0x3b",
          "logIndex": "0xcd",
          "removed": false
        }
      ],
      "logsBloom": "0x00000000100000000000000000000000000000000000000000000000000000000000000000000000000000000000000000000000000000000000000000000000000040000000000000000000000000000000000000000000000000000000000000000000000000000000000000000000000000000000000000000000000000000000000000000000000000000000000000000000000000000000000000000000002000000000000000000000000000000000000000000400000000000000020000000000000000000000000000000000000000000000000000000000000000000002000000000000000000000000000000000000000000000000000000000000",
      "type": "0x2",
      "transactionHash": "0x06d26959f2f919d6bd6d781d0f6634a94c3c1b98e59355dc9af354d8d1ae14eb",
      "transactionIndex": "0x3b",
      "blockHash": "0x8d897f1f5446f20f766d44811c1cf2209c651e949bb5d16c459b9ad599df66e2",
      "blockNumber": "0xeb3772",
      "gasUsed": "0x23f74",
      "effectiveGasPrice": "0x9a63bb",
      "from": "0xc2a96b13a975c656f60f401a5f72851af4717d4a",
      "to": "0xdb0ee72ed5190e9ef7eec288a92f73c5cf3b3c74",
      "contractAddress": null,
      "l1Fee": "0x1347391d18",
      "l1GasPrice": "0x52b0ca72d",
      "l1GasUsed": "0xd3c"
    },
    {
      "status": "0x1",
      "cumulativeGasUsed": "0xae2062",
      "logs": [
        {
          "address": "0xdb0ee72ed5190e9ef7eec288a92f73c5cf3b3c74",
          "topics": [
            "0x64a55044d1f2eddebe1b90e8e2853e8e96931cefadbfa0b2ceb34bee36061941"
          ],
          "data": "0x0000000000000000000000000000000000000000000000000000000000000004",
          "blockHash": "0x8d897f1f5446f20f766d44811c1cf2209c651e949bb5d16c459b9ad599df66e2",
          "blockNumber": "0xeb3772",
          "transactionHash": "0x193a65cd0a50c60986acf67cd859f348832b3b4f6d53a422b6fae41d269218c4",
          "transactionIndex": "0x3c",
          "logIndex": "0xce",
          "removed": false
        }
      ],
      "logsBloom": "0x00000000100000000000000000000000000000000000000000000000000000000000000000000000000000000000000000000000000000000000000000000000000040000000000000000000000000000000000000000000000000000000000000000000000000000000000000000000000000000000000000000000000000000000000000000000000000000000000000000000000000000000000000000000002000000000000000000000000000000000000000000400000000000000020000000000000000000000000000000000000000000000000000000000000000000002000000000000000000000000000000000000000000000000000000000000",
      "type": "0x2",
      "transactionHash": "0x193a65cd0a50c60986acf67cd859f348832b3b4f6d53a422b6fae41d269218c4",
      "transactionIndex": "0x3c",
      "blockHash": "0x8d897f1f5446f20f766d44811c1cf2209c651e949bb5d16c459b9ad599df66e2",
      "blockNumber": "0xeb3772",
      "gasUsed": "0x23f98",
      "effectiveGasPrice": "0x9a63bb",
      "from": "0xc2a96b13a975c656f60f401a5f72851af4717d4a",
      "to": "0xdb0ee72ed5190e9ef7eec288a92f73c5cf3b3c74",
      "contractAddress": null,
      "l1Fee": "0x1358b406d5",
      "l1GasPrice": "0x52b0ca72d",
      "l1GasUsed": "0xd48"
    },
    {
      "status": "0x1",
      "cumulativeGasUsed": "0xb0adda",
      "logs": [
        {
          "address": "0xdb0ee72ed5190e9ef7eec288a92f73c5cf3b3c74",
          "topics": [
            "0x64a55044d1f2eddebe1b90e8e2853e8e96931cefadbfa0b2ceb34bee36061941"
          ],
          "data": "0x0000000000000000000000000000000000000000000000000000000000000005",
          "blockHash": "0x8d897f1f5446f20f766d44811c1cf2209c651e949bb5d16c459b9ad599df66e2",
          "blockNumber": "0xeb3772",
          "transactionHash": "0x0b46359d156d02a5d5f37f601944e2931955629d6c85e7d3246f7442babbe1c4",
          "transactionIndex": "0x3d",
          "logIndex": "0xcf",
          "removed": false
        }
      ],
      "logsBloom": "0x00000000100000000000000000000000000000000000000000000000000000000000000000000000000000000000000000000000000000000000000000000000000040000000000000000000000000000000000000000000000000000000000000000000000000000000000000000000000000000000000000000000000000000000000000000000000000000000000000000000000000000000000000000000002000000000000000000000000000000000000000000400000000000000020000000000000000000000000000000000000000000000000000000000000000000002000000000000000000000000000000000000000000000000000000000000",
      "type": "0x2",
      "transactionHash": "0x0b46359d156d02a5d5f37f601944e2931955629d6c85e7d3246f7442babbe1c4",
      "transactionIndex": "0x3d",
      "blockHash": "0x8d897f1f5446f20f766d44811c1cf2209c651e949bb5d16c459b9ad599df66e2",
      "blockNumber": "0xeb3772",
      "gasUsed": "0x28d78",
      "effectiveGasPrice": "0x9a63bb",
      "from": "0xc2a96b13a975c656f60f401a5f72851af4717d4a",
      "to": "0xdb0ee72ed5190e9ef7eec288a92f73c5cf3b3c74",
      "contractAddress": null,
      "l1Fee": "0x13b01a9784",
      "l1GasPrice": "0x52b0ca72d",
      "l1GasUsed": "0xd84"
    }
  ],
  "libraries": [],
  "pending": [],
  "returns": {
    "samuraiTiers": {
      "internal_type": "contract SamuraiTiers",
      "value": "0xdB0Ee72eD5190e9ef7eEC288a92f73c5cf3B3c74"
    }
  },
  "timestamp": 1717619677,
  "chain": 8453,
  "commit": "5a5b7a3"
}